:1000000012C02CC02BC02AC029C028C027C026C0BF
:1000100025C024C023C022C021C020C01FC01EC0D4
:100020001DC01CC01BC011241FBECFE5D4E0DEBF25
:10003000CDBF10E0A0E6B0E0E2E2F3E002C0059040
:100040000D92A83CB107D9F710E0A8ECB0E001C0D0
:100050001D92A83CB107E1F71AD061C1D1CF10BC05
:1000600083E389B988E18AB986E880BD08955D9BFC
:10007000FECF8CB90895FC018081882339F0319638
:100080005D9BFECF8CB981918823D1F708952F9283
:100090003F924F925F926F927F928F929F92AF9218
:1000A000BF92CF92DF92EF92FF920F931F93DF9355
:1000B000CF93CDB7DEB76E970FB6F894DEBF0FBE05
:1000C000CDBF1E010894211C311C8AE0F101119260
:1000D0008A95E9F75BE0652E712C6C0E7D1E84E13C
:1000E000F30111928A95E9F710BC83E389B988E19D
:1000F0008AB986E880BD80E29EE428EC30E0F90110
:100100003197F1F70197D9F7ECE6F0E087E45D9BD2
:10011000FECF8CB981918823D1F7E0E6F0E04AE682
:10012000442E30E5B32E21E0E22EF12C9DE0A92EE5
:100130008AE0582E08EC10E08081882309F079C00D
:10014000BB9AC39880E49CE90197F1F7C39ABB98E6
:10015000842D8A95F1F7B39995C085ED8A95F1F7CD
:10016000B39B6CC0B39BFECF4101F10180E090E0F6
:10017000B39BFECF2B2D2A95F1F7B39B0FC0A701A0
:10018000082E02C0440F551F0A94E2F720813181E6
:10019000242B352B31832083B399FECF01968830F1
:1001A000910531F73296E615F70501F7EFEBF0E030
:1001B0008DE45D9BFECF8CB981918823D1F75D9B47
:1001C000FECFACB85D9BFECF5CB86301F4018191BA
:1001D00091914F01B6014AE050E05ED0F601808176
:1001E000882339F031965D9BFECF8CB981918823AD
:1001F000D1F75D9BFECFACB85D9BFECF5CB884E0D1
:1002000090E0C80ED91E8614970401F75D9BFECFBF
:10021000ACB85D9BFECF5CB880E197E2F801319706
:10022000F1F70197D9F7E0E6F0E08081882309F43F
:1002300087CF31965D9BFECF8CB97ECFECE9F0E0A5
:1002400084E45D9BFECF8CB981918823D1F780E057
:1002500090E06E960FB6F894DEBF0FBECDBFCF9183
:10026000DF911F910F91FF90EF90DF90CF90BF90A3
:10027000AF909F908F907F906F905F904F903F9046
:100280002F900895E9E7F0E084E45D9BFECF8CB900
:1002900081918823D1F7DBCFFB019F01E8944230A5
:1002A000BCF04532ACF44A3029F497FB1EF490952B
:1002B00081959F4F642F77271ED0805D8A330CF085
:1002C000895D8193CB010097A9F716F45DE2519304
:1002D0001082C90100C0DC01FC01672F71917723F6
:1002E000E1F7329704C07C916D9370836291AE17F1
:1002F000BF07C8F30895AA1BBB1B51E107C0AA1F83
:10030000BB1FA617B70710F0A61BB70B881F991FB6
:100310005A95A9F780959095BC01CD010895F89460
:02032000FFCF0D
:100322006E6577206F6E65210D0A004772656574F0
:10033200696E6773210D0A00444854313120736598
:100342006E64206E6F20726573706F6E7365206FBE
:100352006E207374657020310D0A004448543131A7
:100362002073656E64206E6F20726573706F6E739A
:1003720065206F6E207374657020320D0A004D6522
:080382007373616765203A0006
:00000001FF
