:1000000012C02AC029C028C027C026C025C024C0CD
:1000100023C022C021C020C01FC01EC01DC01CC0E4
:100020001BC01AC019C011241FBECFEDCDBF10E0F8
:10003000A0E6B0E0ECEEF2E002C005900D92A83927
:10004000B107D9F710E0A8E9B0E001C01D92A839C6
:10005000B107E1F731D048C1D3CF12B88DE489B9E7
:100060001BB888E18AB986E083B908955D9BFECF0D
:100070008CB90895FC018081882339F031965D9B0D
:10008000FECF8CB981918823D1F70895E1E6F0E0A5
:1000900094E45D9BFECF9CB991919923D1F75D9B30
:1000A000FECF8CB9E3E8F0E08DE05D9BFECF8CB92C
:1000B00081918823D1F708952F923F924F925F92BA
:1000C0006F927F928F929F92AF92BF92CF92DF9268
:1000D000EF92FF920F931F93DF93CF93CDB7DEB7CD
:1000E000C251CDBF67E0262E312C2C0E3D1E8AE07A
:1000F000F10111928A95E9F786E04E010894811C7E
:10010000911CF401282F11922A95E9F712B89DE469
:1001100099B91BB898E19AB983B951E1A52EB12CD0
:10012000AC0EBD1E40E6642E4AEE742E3CE8C32E93
:1001300028E7D22E91E0E92EF12C84E0482E512CB4
:100140004C0E5D1EC40101969A8B898B0CE211E066
:10015000BB9AC398C3010197F1F7C39ABB988C2D42
:100160008A95F1F7B39977C080EF90E00197F1F7A6
:10017000B39B74C0B399FECFF10187E090E0B39BCD
:10018000FECF2D2D2A95F1F7B39B0FC0A701082EA6
:1001900002C0440F551F0A94E2F720813181242BBD
:1001A000352B31832083B399FECF01972FEF8F3FFB
:1001B000920729F73296EA15FB05F9F6E6E8F0E032
:1001C00088E45D9BFECF8CB981918823D1F78F8124
:1001D0009885B4014AE050E044D0F401808188233E
:1001E00041F0E989FA895D9BFECF8CB98191882322
:1001F000D1F7ECE8F0E085E25D9BFECF8CB9819110
:100200008823D1F78B859C85B2014AE050E029D044
:10021000F2018081882341F0FE0135965D9BFECF7F
:100220008CB981918823D1F7E3E9F0E080E25D9B0E
:10023000FECF8CB981918823D1F719821A821C8252
:100240001D821F82188680E197E2F8013197F1F74D
:100250000197D9F77DCF81E319DFF5CF82E316DF70
:10026000F2CFFB019F01E8944230BCF04532ACF480
:100270004A3029F497FB1EF4909581959F4F642F87
:1002800077271ED0805D8A330CF0895D8193CB0186
:100290000097A9F716F45DE251931082C90100C0DE
:1002A000DC01FC01672F71917723E1F7329704C0DD
:1002B0007C916D9370836291AE17BF07C8F3089568
:1002C000AA1BBB1B51E107C0AA1FBB1FA617B7077C
:1002D00010F0A61BB70B881F991F5A95A9F7809598
:0C02E0009095BC01CD010895F894FFCF6B
:1002EC0044485431312073656E64206E6F20726502
:1002FC0073706F6E7365206F6E2073746570202D34
:10030C0020000D0A0048756D3A2000250D0A743A3C
:08031C002000202A430D0A0015
:00000001FF
